{
  "address": "0x277e13312D192B6fb013E8c2203fC226dBFBbC1b",
  "abi": [
    {
      "inputs": [
        {
          "internalType": "address",
          "name": "vrfCoordinator",
          "type": "address"
        },
        {
          "internalType": "uint64",
          "name": "subscriptionId",
          "type": "uint64"
        },
        {
          "internalType": "bytes32",
          "name": "keyHash",
          "type": "bytes32"
        },
        {
          "internalType": "uint256",
          "name": "entranceFee",
          "type": "uint256"
        },
        {
          "internalType": "uint32",
          "name": "callbackGasLimit",
          "type": "uint32"
        },
        {
          "internalType": "uint256",
          "name": "interval",
          "type": "uint256"
        }
      ],
      "stateMutability": "nonpayable",
      "type": "constructor"
    },
    {
      "inputs": [],
      "name": "Lottery__CLOSED",
      "type": "error"
    },
    {
      "inputs": [],
      "name": "Lottery__NotEnoughETHEntered",
      "type": "error"
    },
    {
      "inputs": [],
      "name": "Lottery__TransferFailed",
      "type": "error"
    },
    {
      "inputs": [
        {
          "internalType": "uint256",
          "name": "currentBalance",
          "type": "uint256"
        },
        {
          "internalType": "uint256",
          "name": "numPlayers",
          "type": "uint256"
        },
        {
          "internalType": "uint256",
          "name": "lotteryState",
          "type": "uint256"
        }
      ],
      "name": "Lottery__UpkeepNotNeeded",
      "type": "error"
    },
    {
      "inputs": [
        {
          "internalType": "address",
          "name": "have",
          "type": "address"
        },
        {
          "internalType": "address",
          "name": "want",
          "type": "address"
        }
      ],
      "name": "OnlyCoordinatorCanFulfill",
      "type": "error"
    },
    {
      "inputs": [],
      "name": "OnlySimulatedBackend",
      "type": "error"
    },
    {
      "anonymous": false,
      "inputs": [
        {
          "indexed": true,
          "internalType": "address",
          "name": "lotteryPlayer",
          "type": "address"
        }
      ],
      "name": "LotteryEnter",
      "type": "event"
    },
    {
      "anonymous": false,
      "inputs": [
        {
          "indexed": true,
          "internalType": "uint256",
          "name": "requestId",
          "type": "uint256"
        }
      ],
      "name": "RequestedWinner",
      "type": "event"
    },
    {
      "anonymous": false,
      "inputs": [
        {
          "indexed": true,
          "internalType": "address",
          "name": "lotteryWinner",
          "type": "address"
        }
      ],
      "name": "WinnerPicked",
      "type": "event"
    },
    {
      "inputs": [
        {
          "internalType": "bytes",
          "name": "",
          "type": "bytes"
        }
      ],
      "name": "checkUpkeep",
      "outputs": [
        {
          "internalType": "bool",
          "name": "upkeepNeeded",
          "type": "bool"
        },
        {
          "internalType": "bytes",
          "name": "",
          "type": "bytes"
        }
      ],
      "stateMutability": "view",
      "type": "function"
    },
    {
      "inputs": [],
      "name": "enterLottery",
      "outputs": [],
      "stateMutability": "payable",
      "type": "function"
    },
    {
      "inputs": [],
      "name": "getEntranceFee",
      "outputs": [
        {
          "internalType": "uint256",
          "name": "",
          "type": "uint256"
        }
      ],
      "stateMutability": "view",
      "type": "function"
    },
    {
      "inputs": [],
      "name": "getInterval",
      "outputs": [
        {
          "internalType": "uint256",
          "name": "",
          "type": "uint256"
        }
      ],
      "stateMutability": "view",
      "type": "function"
    },
    {
      "inputs": [],
      "name": "getLatestTimestamp",
      "outputs": [
        {
          "internalType": "uint256",
          "name": "",
          "type": "uint256"
        }
      ],
      "stateMutability": "view",
      "type": "function"
    },
    {
      "inputs": [],
      "name": "getLotteryState",
      "outputs": [
        {
          "internalType": "enum Lottery.LotteryState",
          "name": "",
          "type": "uint8"
        }
      ],
      "stateMutability": "view",
      "type": "function"
    },
    {
      "inputs": [],
      "name": "getNumWords",
      "outputs": [
        {
          "internalType": "uint256",
          "name": "",
          "type": "uint256"
        }
      ],
      "stateMutability": "pure",
      "type": "function"
    },
    {
      "inputs": [],
      "name": "getNumberOfPlayers",
      "outputs": [
        {
          "internalType": "uint256",
          "name": "",
          "type": "uint256"
        }
      ],
      "stateMutability": "view",
      "type": "function"
    },
    {
      "inputs": [
        {
          "internalType": "uint256",
          "name": "index",
          "type": "uint256"
        }
      ],
      "name": "getPlayer",
      "outputs": [
        {
          "internalType": "address",
          "name": "",
          "type": "address"
        }
      ],
      "stateMutability": "view",
      "type": "function"
    },
    {
      "inputs": [],
      "name": "getRecentWinner",
      "outputs": [
        {
          "internalType": "address",
          "name": "",
          "type": "address"
        }
      ],
      "stateMutability": "view",
      "type": "function"
    },
    {
      "inputs": [],
      "name": "getRequestConfirmations",
      "outputs": [
        {
          "internalType": "uint256",
          "name": "",
          "type": "uint256"
        }
      ],
      "stateMutability": "pure",
      "type": "function"
    },
    {
      "inputs": [],
      "name": "getSubscriptionId",
      "outputs": [
        {
          "internalType": "uint64",
          "name": "",
          "type": "uint64"
        }
      ],
      "stateMutability": "view",
      "type": "function"
    },
    {
      "inputs": [
        {
          "internalType": "bytes",
          "name": "",
          "type": "bytes"
        }
      ],
      "name": "performUpkeep",
      "outputs": [],
      "stateMutability": "nonpayable",
      "type": "function"
    },
    {
      "inputs": [
        {
          "internalType": "uint256",
          "name": "requestId",
          "type": "uint256"
        },
        {
          "internalType": "uint256[]",
          "name": "randomWords",
          "type": "uint256[]"
        }
      ],
      "name": "rawFulfillRandomWords",
      "outputs": [],
      "stateMutability": "nonpayable",
      "type": "function"
    }
  ],
  "transactionHash": "0x65066c2b0b9684514373051e42c749e961f41dacb3a65700b1ac17caf0cc5516",
  "args": [
    "0x6168499c0cffcacd319c818142124b7a15e857ab",
    "7659",
    "0xd89b2bf150e3b9e13446986e571fb9cab24b13cea0a43ea20a6049a85cc807cc",
    "100000000000000000",
    "500000",
    "30"
  ],
  "numDeployments": 2,
  "solcInputHash": "9977ddd079bbc991a7150f8289fbce13",
  "bytecode": "0x6101606040523480156200001257600080fd5b50604051620018a9380380620018a9833981810160405281019062000038919062000294565b858073ffffffffffffffffffffffffffffffffffffffff1660808173ffffffffffffffffffffffffffffffffffffffff1681525050508573ffffffffffffffffffffffffffffffffffffffff1660c08173ffffffffffffffffffffffffffffffffffffffff16815250508467ffffffffffffffff166101008167ffffffffffffffff16815250508360e081815250508260a081815250506000600160146101000a81548160ff02191690836001811115620000f857620000f762000330565b5b02179055508163ffffffff166101208163ffffffff1681525050806101408181525050426002819055505050505050506200035f565b600080fd5b600073ffffffffffffffffffffffffffffffffffffffff82169050919050565b6000620001608262000133565b9050919050565b620001728162000153565b81146200017e57600080fd5b50565b600081519050620001928162000167565b92915050565b600067ffffffffffffffff82169050919050565b620001b78162000198565b8114620001c357600080fd5b50565b600081519050620001d781620001ac565b92915050565b6000819050919050565b620001f281620001dd565b8114620001fe57600080fd5b50565b6000815190506200021281620001e7565b92915050565b6000819050919050565b6200022d8162000218565b81146200023957600080fd5b50565b6000815190506200024d8162000222565b92915050565b600063ffffffff82169050919050565b6200026e8162000253565b81146200027a57600080fd5b50565b6000815190506200028e8162000263565b92915050565b60008060008060008060c08789031215620002b457620002b36200012e565b5b6000620002c489828a0162000181565b9650506020620002d789828a01620001c6565b9550506040620002ea89828a0162000201565b9450506060620002fd89828a016200023c565b93505060806200031089828a016200027d565b92505060a06200032389828a016200023c565b9150509295509295509295565b7f4e487b7100000000000000000000000000000000000000000000000000000000600052602160045260246000fd5b60805160a05160c05160e0516101005161012051610140516114d3620003d6600039600081816106c201526107300152600061055b01526000818161053801526108c701526000610517015260006104db015260008181610340015261075601526000818161036601526103ba01526114d36000f3fe6080604052600436106100dd5760003560e01c80636e04ff0d1161007f578063de3d9fb711610059578063de3d9fb71461027e578063e55ae4e8146102a9578063f43b52cb146102e6578063fd6673f514610311576100dd565b80636e04ff0d1461020b57806391ad27b414610249578063c1af578514610274576100dd565b8063473f1ddc116100bb578063473f1ddc1461015f57806353a2c19a1461018a5780635f1b0fd8146101b55780636b68c03c146101e0576100dd565b806309bc33a7146100e25780631fe543e31461010d5780634585e33b14610136575b600080fd5b3480156100ee57600080fd5b506100f761033c565b6040516101049190610c39565b60405180910390f35b34801561011957600080fd5b50610134600480360381019061012f9190610ded565b610364565b005b34801561014257600080fd5b5061015d60048036038101906101589190610ea4565b610424565b005b34801561016b57600080fd5b50610174610623565b6040516101819190610f32565b60405180910390f35b34801561019657600080fd5b5061019f61064d565b6040516101ac9190610c39565b60405180910390f35b3480156101c157600080fd5b506101ca61065c565b6040516101d79190610c39565b60405180910390f35b3480156101ec57600080fd5b506101f5610669565b6040516102029190610fc4565b60405180910390f35b34801561021757600080fd5b50610232600480360381019061022d9190611094565b610680565b604051610240929190611180565b60405180910390f35b34801561025557600080fd5b5061025e61072c565b60405161026b9190610c39565b60405180910390f35b61027c610754565b005b34801561028a57600080fd5b506102936108c3565b6040516102a091906111d3565b60405180910390f35b3480156102b557600080fd5b506102d060048036038101906102cb91906111ee565b6108eb565b6040516102dd9190610f32565b60405180910390f35b3480156102f257600080fd5b506102fb610932565b6040516103089190610c39565b60405180910390f35b34801561031d57600080fd5b5061032661093c565b6040516103339190610c39565b60405180910390f35b60007f0000000000000000000000000000000000000000000000000000000000000000905090565b7f000000000000000000000000000000000000000000000000000000000000000073ffffffffffffffffffffffffffffffffffffffff163373ffffffffffffffffffffffffffffffffffffffff161461041657337f00000000000000000000000000000000000000000000000000000000000000006040517f1cf993f400000000000000000000000000000000000000000000000000000000815260040161040d92919061121b565b60405180910390fd5b6104208282610948565b5050565b600061043e60405180602001604052806000815250610680565b509050806104ad5747600080549050600160149054906101000a900460ff16600181111561046f5761046e610f4d565b5b6040517f6e195f250000000000000000000000000000000000000000000000000000000081526004016104a493929190611244565b60405180910390fd5b60018060146101000a81548160ff021916908360018111156104d2576104d1610f4d565b5b021790555060007f000000000000000000000000000000000000000000000000000000000000000073ffffffffffffffffffffffffffffffffffffffff16635d3b1d307f00000000000000000000000000000000000000000000000000000000000000007f000000000000000000000000000000000000000000000000000000000000000060037f000000000000000000000000000000000000000000000000000000000000000060016040518663ffffffff1660e01b815260040161059c9594939291906112d0565b602060405180830381600087803b1580156105b657600080fd5b505af11580156105ca573d6000803e3d6000fd5b505050506040513d601f19601f820116820180604052508101906105ee9190611338565b9050807fb67476d1d38e93caac2ca37113122e613c199269c4cea0d39c67807a6442b40a60405160405180910390a250505050565b6000600160009054906101000a900473ffffffffffffffffffffffffffffffffffffffff16905090565b6000600163ffffffff16905090565b6000600361ffff16905090565b6000600160149054906101000a900460ff16905090565b60006060600080600181111561069957610698610f4d565b5b600160149054906101000a900460ff1660018111156106bb576106ba610f4d565b5b14905060007f0000000000000000000000000000000000000000000000000000000000000000600254426106ef9190611394565b1190506000806000805490501190506000804711905083801561070f5750825b80156107185750815b80156107215750805b955050505050915091565b60007f0000000000000000000000000000000000000000000000000000000000000000905090565b7f00000000000000000000000000000000000000000000000000000000000000003410156107ae576040517fec269fd100000000000000000000000000000000000000000000000000000000815260040160405180910390fd5b600060018111156107c2576107c1610f4d565b5b600160149054906101000a900460ff1660018111156107e4576107e3610f4d565b5b1461081b576040517fff3d9dba00000000000000000000000000000000000000000000000000000000815260040160405180910390fd5b6000339080600181540180825580915050600190039060005260206000200160009091909190916101000a81548173ffffffffffffffffffffffffffffffffffffffff021916908373ffffffffffffffffffffffffffffffffffffffff1602179055503373ffffffffffffffffffffffffffffffffffffffff167f1d64fb5ba9f2548c5b98468d58f25b87b9e866afee0122e92d9fe722bf85076c60405160405180910390a2565b60007f0000000000000000000000000000000000000000000000000000000000000000905090565b6000808281548110610900576108ff6113c8565b5b9060005260206000200160009054906101000a900473ffffffffffffffffffffffffffffffffffffffff169050919050565b6000600254905090565b60008080549050905090565b6000808054905082600081518110610963576109626113c8565b5b60200260200101516109759190611426565b9050600080828154811061098c5761098b6113c8565b5b9060005260206000200160009054906101000a900473ffffffffffffffffffffffffffffffffffffffff16905080600160006101000a81548173ffffffffffffffffffffffffffffffffffffffff021916908373ffffffffffffffffffffffffffffffffffffffff1602179055506000600160146101000a81548160ff02191690836001811115610a2057610a1f610f4d565b5b0217905550600067ffffffffffffffff811115610a4057610a3f610caa565b5b604051908082528060200260200182016040528015610a6e5781602001602082028036833780820191505090505b5060009080519060200190610a84929190610b79565b504260028190555060008173ffffffffffffffffffffffffffffffffffffffff1647604051610ab290611488565b60006040518083038185875af1925050503d8060008114610aef576040519150601f19603f3d011682016040523d82523d6000602084013e610af4565b606091505b5050905080610b2f576040517f1c94012000000000000000000000000000000000000000000000000000000000815260040160405180910390fd5b8173ffffffffffffffffffffffffffffffffffffffff167f5b690ec4a06fe979403046eaeea5b3ce38524683c3001f662c8b5a829632f7df60405160405180910390a25050505050565b828054828255906000526020600020908101928215610bf2579160200282015b82811115610bf15782518260006101000a81548173ffffffffffffffffffffffffffffffffffffffff021916908373ffffffffffffffffffffffffffffffffffffffff16021790555091602001919060010190610b99565b5b509050610bff9190610c03565b5090565b5b80821115610c1c576000816000905550600101610c04565b5090565b6000819050919050565b610c3381610c20565b82525050565b6000602082019050610c4e6000830184610c2a565b92915050565b6000604051905090565b600080fd5b600080fd5b610c7181610c20565b8114610c7c57600080fd5b50565b600081359050610c8e81610c68565b92915050565b600080fd5b6000601f19601f8301169050919050565b7f4e487b7100000000000000000000000000000000000000000000000000000000600052604160045260246000fd5b610ce282610c99565b810181811067ffffffffffffffff82111715610d0157610d00610caa565b5b80604052505050565b6000610d14610c54565b9050610d208282610cd9565b919050565b600067ffffffffffffffff821115610d4057610d3f610caa565b5b602082029050602081019050919050565b600080fd5b6000610d69610d6484610d25565b610d0a565b90508083825260208201905060208402830185811115610d8c57610d8b610d51565b5b835b81811015610db55780610da18882610c7f565b845260208401935050602081019050610d8e565b5050509392505050565b600082601f830112610dd457610dd3610c94565b5b8135610de4848260208601610d56565b91505092915050565b60008060408385031215610e0457610e03610c5e565b5b6000610e1285828601610c7f565b925050602083013567ffffffffffffffff811115610e3357610e32610c63565b5b610e3f85828601610dbf565b9150509250929050565b600080fd5b60008083601f840112610e6457610e63610c94565b5b8235905067ffffffffffffffff811115610e8157610e80610e49565b5b602083019150836001820283011115610e9d57610e9c610d51565b5b9250929050565b60008060208385031215610ebb57610eba610c5e565b5b600083013567ffffffffffffffff811115610ed957610ed8610c63565b5b610ee585828601610e4e565b92509250509250929050565b600073ffffffffffffffffffffffffffffffffffffffff82169050919050565b6000610f1c82610ef1565b9050919050565b610f2c81610f11565b82525050565b6000602082019050610f476000830184610f23565b92915050565b7f4e487b7100000000000000000000000000000000000000000000000000000000600052602160045260246000fd5b60028110610f8d57610f8c610f4d565b5b50565b6000819050610f9e82610f7c565b919050565b6000610fae82610f90565b9050919050565b610fbe81610fa3565b82525050565b6000602082019050610fd96000830184610fb5565b92915050565b600080fd5b600067ffffffffffffffff821115610fff57610ffe610caa565b5b61100882610c99565b9050602081019050919050565b82818337600083830152505050565b600061103761103284610fe4565b610d0a565b90508281526020810184848401111561105357611052610fdf565b5b61105e848285611015565b509392505050565b600082601f83011261107b5761107a610c94565b5b813561108b848260208601611024565b91505092915050565b6000602082840312156110aa576110a9610c5e565b5b600082013567ffffffffffffffff8111156110c8576110c7610c63565b5b6110d484828501611066565b91505092915050565b60008115159050919050565b6110f2816110dd565b82525050565b600081519050919050565b600082825260208201905092915050565b60005b83811015611132578082015181840152602081019050611117565b83811115611141576000848401525b50505050565b6000611152826110f8565b61115c8185611103565b935061116c818560208601611114565b61117581610c99565b840191505092915050565b600060408201905061119560008301856110e9565b81810360208301526111a78184611147565b90509392505050565b600067ffffffffffffffff82169050919050565b6111cd816111b0565b82525050565b60006020820190506111e860008301846111c4565b92915050565b60006020828403121561120457611203610c5e565b5b600061121284828501610c7f565b91505092915050565b60006040820190506112306000830185610f23565b61123d6020830184610f23565b9392505050565b60006060820190506112596000830186610c2a565b6112666020830185610c2a565b6112736040830184610c2a565b949350505050565b6000819050919050565b61128e8161127b565b82525050565b600061ffff82169050919050565b6112ab81611294565b82525050565b600063ffffffff82169050919050565b6112ca816112b1565b82525050565b600060a0820190506112e56000830188611285565b6112f260208301876111c4565b6112ff60408301866112a2565b61130c60608301856112c1565b61131960808301846112c1565b9695505050505050565b60008151905061133281610c68565b92915050565b60006020828403121561134e5761134d610c5e565b5b600061135c84828501611323565b91505092915050565b7f4e487b7100000000000000000000000000000000000000000000000000000000600052601160045260246000fd5b600061139f82610c20565b91506113aa83610c20565b9250828210156113bd576113bc611365565b5b828203905092915050565b7f4e487b7100000000000000000000000000000000000000000000000000000000600052603260045260246000fd5b7f4e487b7100000000000000000000000000000000000000000000000000000000600052601260045260246000fd5b600061143182610c20565b915061143c83610c20565b92508261144c5761144b6113f7565b5b828206905092915050565b600081905092915050565b50565b6000611472600083611457565b915061147d82611462565b600082019050919050565b600061149382611465565b915081905091905056fea264697066735822122082a738f3f1e3caa6e10b4bf3f649be724ad2d3c83719e299584220240a27676464736f6c63430008090033",
  "devdoc": {
    "kind": "dev",
    "methods": {},
    "version": 1
  },
  "userdoc": {
    "kind": "user",
    "methods": {
      "checkUpkeep(bytes)": {
        "notice": "This function contains the logic that runs off-chain during every block to determine if performUpkeep should be executed on-chain. We don't use the checkData in this example. The checkData is Fixed and specified at Upkeep registration and used in every checkUpkeep. Can be empty \"0x\". Conditions to be verified in order to return true: 1. Time interval should have passed 2. Subscription should be funded with enough LINK 3. The lottery state should be \"open\""
      }
    },
    "version": 1
  },
  "storageLayout": {
    "storage": [
      {
        "astId": 245,
        "contract": "contracts/Lottery.sol:Lottery",
        "label": "s_players",
        "offset": 0,
        "slot": "0",
        "type": "t_array(t_address_payable)dyn_storage"
      },
      {
        "astId": 247,
        "contract": "contracts/Lottery.sol:Lottery",
        "label": "s_recentWinner",
        "offset": 0,
        "slot": "1",
        "type": "t_address"
      },
      {
        "astId": 250,
        "contract": "contracts/Lottery.sol:Lottery",
        "label": "s_lotteryState",
        "offset": 20,
        "slot": "1",
        "type": "t_enum(LotteryState)242"
      },
      {
        "astId": 252,
        "contract": "contracts/Lottery.sol:Lottery",
        "label": "s_lastTimestamp",
        "offset": 0,
        "slot": "2",
        "type": "t_uint256"
      }
    ],
    "types": {
      "t_address": {
        "encoding": "inplace",
        "label": "address",
        "numberOfBytes": "20"
      },
      "t_address_payable": {
        "encoding": "inplace",
        "label": "address payable",
        "numberOfBytes": "20"
      },
      "t_array(t_address_payable)dyn_storage": {
        "base": "t_address_payable",
        "encoding": "dynamic_array",
        "label": "address payable[]",
        "numberOfBytes": "32"
      },
      "t_enum(LotteryState)242": {
        "encoding": "inplace",
        "label": "enum Lottery.LotteryState",
        "numberOfBytes": "1"
      },
      "t_uint256": {
        "encoding": "inplace",
        "label": "uint256",
        "numberOfBytes": "32"
      }
    }
  }
}